:020000040000FA
:0200000047288F
:08000800F000030E8312F20068
:100010000408F1009A2171088400720E8300F00E2A
:10002000700E09000000FF3C033E03181D2800006D
:1000300002020202031D1828000000344E30A700FF
:10004000113022282E280130A7003B30000028283C
:100050002E280830A70037302D282E280202020251
:10006000031D2E280000A70B2E2800000034A70037
:100070003B30A70B3A3002020202031D3B2800006E
:1000800041280000A708031D38280000003485011E
:10009000860107309F0090161012A101A00129309F
:1000A000013EA900B2003330013EB300CA00033064
:1000B0008A0000008316811318121811333099003A
:1000C00098168C168312903098001A080B178B170D
:1000D000061C7028861D9A2833084A02031D8E28A4
:1000E000201E75282108031D8C28290832020319B7
:1000F0006828D221003803196828A0188C282018F5
:100100008528FF3C031920146828043C031D682837
:10011000A014AA30E8216828DE20682833084A02A3
:100120000319952833088400000831210038031989
:10013000002268286F210038031D68282308A200C8
:10014000FA30E82122090319C428F23022020319E7
:10015000BF28ED3022020319BD28201DBB280E3018
:10016000D9200301A219023822190838A21801382F
:1001700022180438D9202011682820156828AB30AF
:10018000E8218330E821BB280130D920A101831266
:1001900010100C1083160C108312A0012930013EA0
:1001A000A900B2003330013EB300CA00FA30E821A2
:1001B00068280C1ED928990000000800A100A01191
:1001C000A11FA015A11315302102031D0129A01D97
:1001D000F928E130E8211430E8217730E821E130D6
:1001E000E821F030E8211430E821F030E8217730C0
:1001F000E8212012831210100C1083160C108312A9
:1002000008002108002300380319F928A300A31FC0
:100210001429231F0E298330A3001429E030E8217C
:10022000A31323088123A300A0192029A10183126D
:1002300010100C1083160C108312F030E8212E29B8
:100240008F018E01201E2829DF308F0073308E0031
:1002500020120C1083160C14831210142308E821AA
:100260000800A300A6000830A4000130A500023059
:10027000122003105921061C53293E293F29A30CA3
:100280005921A40B3B29061C5329260EA606260C31
:10029000A6062619A60AA609A60C59210230122084
:1002A00003145921A5018316FF3086008312250807
:1002B0000800860183160608F739031808388600F7
:1002C0008312622963296429652967210800860150
:1002D0008316061006301220061483120800A301AC
:1002E0000830A4000130A50003301220672102303D
:1002F0001220031086190314A30C02301220A40B41
:100300007629672106301220672102301220861DCF
:100310009729A501031059218316FF308600831207
:100320002508080067210330122086198C29033024
:100330001220922983160C1CA72983120C1CA729B2
:10034000831210100C1083160C10831220168316C3
:100350008C1E080083128C1E08001819B829981CDE
:10036000B329181218161A08BA218C1E0800B329CE
:100370001A080800A80032303202031908003208B7
:10038000840028088000B20A32303202031DCB29D3
:100390002930013EB20029083202031D0800323024
:1003A000B200080029083202031900343230320248
:1003B000031DDC292908B20029088400A90A32306B
:1003C0002902031DE6292930A900A90A000808000E
:1003D000A8004A304A02031908004A088400280885
:1003E0008000CA0A4A304A02031DF9293330013E0F
:1003F000CA0033084A02031D08004A30CA00080038
:1004000033084A02031900344A304A02031D0A2AFB
:100410003308CA0033088400B30A4A303302031D8C
:0C042000142A3330B300B30A00080800AF
:10060000820700349B3481349A34823405340634B2
:100610000934043478340C340734033485340B340F
:100620000034C3340A34013411348834003489343A
:100630007E348A34393499348B348C34763416349D
:100640001E34263425342E3436343D343E3446347C
:1006500045344E3455340E3466348D3480348E3403
:100660007C3483341F34713496348F340D34153414
:100670001D3424342D342C3435343C344334443448
:100680004D3454345B34903484346C3475347D345C
:100690007B34273497349134003414341C341B34A5
:1006A00023342B34343433343B3442344B344C34E1
:1006B00052345D345A3492346B347334743470343D
:1006C0002F3493349534773412341A34223421344D
:1006D0002A34323431343A34413449344A34593486
:1006E0000034693472347A3400340034003498347D
:1006F000583486342934873494346134793400345E
:100700000034820723342134323437342F34113407
:100710001F34273475347C346B3472347434703441
:100720004A346C34713469345A347D347A34433405
:0C0730004434463405343D3436343B3448
:02400E00183F59
:104200006F006B0020002400490064003A00200089
:10421000730075006E006B00620064002E00610088
:1042200073006D002C007600200031002E00380055
:10423000200032003000310032002F003100300009
:104240002F00320033002000300037003A003100E8
:1042500035003A0032003100200061007A00200071
:10426000450078007000200024000D000A000000C6
:00000001FF
